:100000000C94BE080C94DB080C94DB080C94DB0801
:100010000C9446280C94DB080C94DB080C94DB0849
:100020000C94DB080C94DB080C9405300C94D9304C
:100030000C94092B0C94DB080C94DB080C94DB0863
:100040000C94DB080C94DB080C94DB080C94DB08A4
:100050000C94DB080C94AC2B0C94DB080C94DB08A0
:100060000C94DB080C94DB080C94DB080C94DB0884
:100070000C94DB080C94DB080C94DB080C94DB0874
:100080000C94DB080C94DB080C94DB080C94DB0864
:100090000C94DB080C94DB080C94DB080C94DB0854
:1000A0000C94DB080C94DB080C94DB0800000000C7
:1000B00000000000000000000000E01C0205022417
:1000C000040402A91EE0000000000000000000007F
:1000D00000E0900818601008040300000000000011
:1000E00000020E827C0300000000000000000000FF
:1000F00000000102040C1010202020283E1C2020AB
:100100003E0F111F00000000000000000000000072
:1001100000000000000000000000E01C02050224B6
:10012000040402A91EE0000000000000000000001E
:100130000000E01008681008040300000000000040
:10014000000206827C0300000000000000000000A6
:1001500000000102040C1010202020283E1C20204A
:100160003E0F111F00000000000000000000000012
:100170000000804040408000000000000000E0A03F
:10018000204080C0204080000000000000000000EF
:100190003E41F004020202030202020404020100D2
:1001A00000000400404055827C0000000000000078
:1001B00000003F20300C020509121E041810081020
:1001C00020283406020101000000000000000000A9
:1001D0000000804040404080000000000000C0401F
:1001E000408000804080000000000000000000000F
:1001F0001E21F004020202020302020404040301AD
:10020000000009018080AB04F8000000000000003D
:100210000000031C20203C0F111F0206182020386C
:1002200008101804040202010000000000E0101091
:10023000F00000000000000000808040402C14040A
:100240000890180408B04080000000000003040873
:100250001011F9010101010101000000000000007E
:100260000080C048282A100F204A09100000000012
:1002700000000001020C102028370202040810269A
:100280002B320405060000000000000000C0201012
:10029000D030000000000000008080403C140408C2
:1002A00090180408B040800000000000000304081B
:1002B0001011F9010101010101000000000000001E
:1002C00080C848282A100F0000000000000000002D
:1002D00000000001020C102028370202040810263A
:1002E0002B320405060000000000000000000000A2
:1002F00000008040202020408000000000E0102806
:10030000102020201048F000000000000000000035
:10031000001F20F80201010101010101030000009A
:100320000001001030D5201F000000000000000078
:100330000000003F20300C020509121E021C1408A8
:1003400010202C320100000000000000000000001E
:100350000080402010909090A0C080808070081491
:100360000890101008A47880000000000000000031
:10037000000708FC010000000080000001000000F0
:100380000000000818EA100F000000000000000044
:10039000000000031C20203C0F111F030618202022
:1003A0003C0C121E010000000000000000000000D4
:1003B000E0100808C8B08080808080808040403C89
:1003C00014040890180408B04080000000000000E9
:1003D0000102C4A4FC000000008000000000000036
:1003E00000000080C858282A100F000000000000FC
:1003F000000E0904040404020302010102020408BD
:1004000010262B320405060000000000000000E06A
:100410001010F000000000000000008080807828AC
:100420000810203008102040800000000000000369
:1004300004081011F9010101010101000000000090
:100440000000000110B05055201F00000000000007
:10045000000000000001020C10202837021E20209E
:10046000180C141E010000000000000035001E00E2
:100470001F002000210022000000000000000000FA
:10048000000000000000000000000000000000006C
:10049000000000002B0014001A00080015001700CF
:1004A000000000000000000000000000000000004C
:1004B000000000000000000000000000E000042830
:1004C0001624072209210A0000000000E3000000B2
:1004D000000000000000000000000000000000001C
:1004E00000000000E1001D001B00060019000500CF
:1004F0002C212B42E2000000000000000000000060
:1005000000000000000000000000000023002400A4
:100510002500260027002D002A0000000000000012
:1005200000000000000000000000000000000000CB
:10053000000000001C0018000C00120013002F0027
:10054000300000000000000000000000000000007B
:100550000000000000000000000000000B000D2162
:100560000E220F24332834002800000000006352BC
:10057000000000000000000000000000000000007B
:1005800000000000110010003600370038002E0077
:100590004C0029412A223100000000000000000028
:1005A00000000000000000000000000000003A0011
:1005B0003B003C003D003E00000000000000000049
:1005C000000000000000000000000000000000002B
:1005D0000000000001001E021F0220022102220270
:1005E000000000000000000000000000000000000B
:1005F00000000000000000000000000001002E00CC
:100600002F0030002D002D0200000000000000002F
:1006100000000000000000000000000000000000DA
:10062000000000000100E301000000000000E20102
:10063000E1000000000000000000000000000000D9
:100640000000000000000000000000003F0040002B
:10065000410042004300440045000000000000004B
:10066000000000000000000000000000000000008A
:1006700000000000230224022502260227020000B7
:10068000000000000000000000000000000000006A
:1006900000000000000000000000000050005100B9
:1006A00052004F00000000000000000000000000A9
:1006B000000000000000000000000000000000003A
:1006C000000000000000000000000000000000002A
:1006D0000000010000000000000000000000000019
:1006E000000000000000000000000000000000000A
:1006F00000000000000000000000000000000000FA
:1007000000000000000000000000000000000000E9
:10071000000000000000000000002F00300000007A
:1007200000000000000000000000000000000000C9
:1007300000000000000000000000000000000000B9
:100740000000260227020000000000000000000058
:100750000000000000000000000000000000000099
:10076000000000000000000000002F023002000026
:100770000000000000000000000000000000000079
:100780000000000000000000000000000000000069
:100790000000000000000000000000000000000059
:1007A0000000000000000000000000000000000049
:1007B000000000002400250026002E02000000009A
:1007C0000000000000000000000000000000000029
:1007D00000000000000000000000000021002200D6
:1007E00023002D00000000000000000000000000B9
:1007F00000000000000000000000000000000000F9
:10080000000000001E001F0020002E00000000005D
:1008100000002700000001000000000000000000B0
:10082000000000000000000000000000007C00004C
:1008300000000000000000000000000000000000B8
:1008400000000000000000000000000000000000A8
:10085000000000002B000000CD000000D900A9001E
:100860000000000000000000000000000000000088
:10087000000000000000000000000000E000CF00C9
:10088000CE00D000DA00AA00000000000000000046
:100890000000000000000000000000000000000058
:1008A00000000000E1000000000000000000A800BF
:1008B000E200000000000000000000000000000056
:1008C00000000000000000000000000004520000D2
:1008D0000000000000000000000000000000000018
:1008E0000000000000000000000000000000000008
:1008F00000000000AC00D100D200DD0000000000CC
:1009000000000000000000000000000000000000E7
:10091000000000000000000000000000AB00D30059
:10092000DE00DF0000000000000000000000010009
:1009300000000000000000000000000000000000B7
:1009400000000000AE0000000000000000000000F9
:100950000000000000000000000000000000000097
:1009600000000000000000000000000035001E0034
:100970001F002000210022000000000000000000F5
:100980000000000000000000000000000000000067
:10099000000000002B0014001A00080015001700CA
:1009A0000000000000000000000000000000000047
:1009B000000000000000000000000000E000040053
:1009C0001600070009000A0000000000E300000014
:1009D0000000000000000000000000000000000017
:1009E00000000000E1001D001B00060019000500CA
:1009F000E2002C00290000000000000000000000C0
:100A0000000000000000000000000000230024009F
:100A10002500260027002D002A000000000000000D
:100A200000000000000000000000000000000000C6
:100A3000000000001C0018000C00120013002F0022
:100A40003000000000000000000000000000000076
:100A50000000000000000000000000000B000D007E
:100A60000E000F0033003400280000000000005288
:100A70000000000000000000000000000000000076
:100A800000000000110010003600370038002E0072
:100A90004C0029413121000000000000000000004E
:100AA000000000000000000000000000002E00AE6A
:100AB00000AF00DA028114D9F1DB20A4A62EAF002A
:100AC000A0C0D30000A1C8D30000AED580A81F40AD
:100AD0008D14200007087F0807003E5B4F5B3E0037
:100AE0003E6B4F6B3E001C3E7C3E1C00183C7E3C27
:100AF00018001C577D571C001C5E7F5E1C000018F0
:100B00003C180000FFE7C3E7FF00001824180000AE
:100B1000FFE7DBE7FF0030483A060E002629792977
:100B20002600407F05050700407F05253F005A3C11
:100B3000E73C5A007F3E1C1C0800081C1C3E7F003E
:100B400014227F2214005F5F005F5F0006097F01AF
:100B50007F00006689956A0060606060600094A212
:100B6000FFA2940008047E04080010207E201000DC
:100B700008082A1C0800081C2A0808001E1010106B
:100B800010000C1E0C1E0C0030383E383000060ED3
:100B90003E0E060000000000000000005F000000A4
:100BA000000700070000147F147F1400242A7F2A06
:100BB00012002313086462003649562050000008D2
:100BC00007030000001C224100000041221C00001D
:100BD0002A1C7F1C2A0008083E080800008070308C
:100BE00000000808080808000000606000002010ED
:100BF000080402003E5149453E0000427F4000008B
:100C00007249494946002141494D33001814127F69
:100C100010002745454539003C4A494931004121EA
:100C200011090700364949493600464949291E003D
:100C300000001400000000403400000000081422EE
:100C4000410014141414140000412214080002017D
:100C5000590906003E415D594E007C1211127C007C
:100C60007F49494936003E41414122007F4141418F
:100C70003E007F49494941007F09090901003E4181
:100C8000415173007F0808087F0000417F41000048
:100C90002040413F01007F08142241007F40404036
:100CA00040007F021C027F007F0408107F003E414D
:100CB00041413E007F09090906003E4151215E0085
:100CC0007F091929460026494949320003017F015D
:100CD00003003F4040403F001F2040201F003F4096
:100CE00038403F00631408146300030478040300D1
:100CF0006159494D4300007F414141000204081001
:100D00002000004141417F000402010204004040F4
:100D10004040400000030708000020545478400081
:100D20007F28444438003844444428003844442848
:100D30007F0038545454180000087E09020018A49B
:100D4000A49C78007F080404780000447D400000E3
:100D50002040403D00007F102844000000417F40BB
:100D600000007C04780478007C080404780038448F
:100D700044443800FC182424180018242418FC00CB
:100D80007C080404080048545454240004043F44DC
:100D900024003C4040207C001C2040201C003C40A3
:100DA00030403C004428102844004C9090907C0037
:100DB0004464544C440000083641000000007700B1
:100DC00000000041360800000201020402003C2637
:100DD00023263C00000000000000404040F0F8F8EE
:100DE000FF38FFF8F83FF8F8FF38FFF8F8F0404018
:100DF0004000000000000080C0C0C0800000C0C0F3
:100E00008000000080C0C000C0C0000080C0C000E2
:100E100000000000C0C0C0C0C000C0C00000000092
:100E200000000000000000000000000000000000C2
:100E300000000000000000000000000000000000B2
:100E400000000000000000000000000000000000A2
:100E5000000000C0F0F8FC3E1E06010000007F41CB
:100E600041417F007F4141417F000080C0E07E5BC7
:100E70004F5BFEC00000C000DCD7DEDEDED7DC004A
:100E8000C0000000000000000000000000000000A2
:100E900000000000000000000000494949FFFFFF7A
:100EA000FFE0DFBFBF00BFBFDFE0FFFFFFFF49493B
:100EB0004900000000001F3F6060E0BF1F007F7F0F
:100EC000071E381E077F7F007F7F0E1F3B7160006B
:100ED000000000007F7F0C0C0C007E7E007F7E03F4
:100EE00003007F7E03037E7E03037F7E000F3E7040
:100EF0003C063C703E0F00327B49493F7E007F7EBE
:100F00000303001E3F69696F260000000000000017
:100F1000000000030F1F3F3C7870600000007F411D
:100F200041417F007F4141417F00307B7F7830200D
:100F30002030787F3B0003000F7F0F0F0F7F0F00E3
:100F4000030000000000000000000000000000009E
:100F500000000000000000000000010101070F0F69
:100F60007F0F7F0F0F7E0F0F7F0F7F0F0F07010186
:100F7000010000000000000000000001010000006E
:100F80000000000000000000000000000000000061
:100F90000000000000000000000000000000000051
:100FA0000000000000000000000000000000000041
:100FB0000000000000000000000000000000000031
:100FC0000000000000000000000000000000000021
:100FD0000000000000000000000000000000000011
:100FE0000000000000000000000000000000000001
:100FF00000000000000000000000000000000000F1
:1010000000000000000000000000000000000000E0
:10101000000000000E0369006400610062006500CA
:101020006E0000000E036E0069007100750065001F
:10103000670000000403090409023B00020100A04C
:10104000FA09040000010301010009211101000156
:101050002240000705810308000109040100010383
:1010600000000009211101000122B60007058203DA
:101070002000011201000200000008EDFE000051F6
:10108000150102000105010902A10185020901A162
:101090000005091901290815002501950875018128
:1010A000020501093009311581257F9502750881F6
:1010B0000609381581257F950175088106050C0AFA
:1010C00038021581257F950175088106C0C005018C
:1010D0000980A101850319012AB700150126B7006F
:1010E000950175108100C0050C0901A10185041945
:1010F000012AA002150126A002950175108100C0E9
:1011000005010906A1018506050719E029E7150073
:1011100025019508750181020507190029EF1500C1
:10112000250195F07501810205081901290595052C
:1011300075019102950175039101C005010906A190
:1011400001050719E029E7150025019508750181BA
:10115000029501750881010507190029FF15002670
:10116000FF009506750881000508190129059505F8
:1011700075019102950175039101C00011241FBEF4
:10118000CFEFDAE0DEBFCDBF12E0A0E0B1E0E0E3F8
:10119000F8E602C005900D92A037B107D9F726E016
:1011A000A0E7B2E001C01D92A43DB207E1F70E94A2
:1011B0003D1D0C94D7330C940000A8E0B0E0E3EEA2
:1011C000F8E00C943033909301018093000140913A
:1011D00050015091510160915201709153014D8322
:1011E0005E836F8378878230910509F453C0ECF5F4
:1011F000019709F446C08091540190915501A09146
:101200005601B091570189839A83AB83BC83809147
:101210007302909174020E94812B893C910508F120
:101220000E94692BB0E0A0E0809373029093740257
:10123000A0937502B0937602809172028F5F8170E5
:101240008093720290E0880F991FE1E0F0E0EC0FCC
:10125000FD1FE80FF91F60817181848195810E94D3
:10126000A0212896E2E00C944C3383309105C9F01C
:10127000049709F68CE091E09E838D838CEA90E0E0
:1012800006C08CE493E09E838D838CEE92E0988779
:101290008F83B1CF8CE892E09E838D838CE292E0C5
:1012A000F6CF8CEC91E09E838D838CE691E0EFCFBE
:1012B00083E00895CF93DF930E94AE2590E0909352
:1012C0007A02809379020E94AE2590E09093780292
:1012D000809377020E948029C82F8091020181119A
:1012E00059C061E00E94A32060E084E691E00E9482
:1012F000852160E08AE691E00E94852160E080E738
:1013000091E00E94852160E086E791E00E948521BE
:1013100060E08CE791E00E94852160E082E891E046
:101320000E94852160E088E891E00E94852160E0CC
:101330008EE891E00E94852160E084E991E00E94BE
:10134000852160E08AE991E00E94852160E080EAE1
:1013500091E00E94852160E086EA91E00E9485216B
:1013600060E08CEA91E00E94852160E082EB91E0F0
:101370000E94852160E088EB91E00E94852160E079
:101380008EEB91E00E9485210E94002380E0DF9196
:10139000CF91089580917B02811105C00E94342075
:1013A00081E080937B0261E080E00E94A32060E006
:1013B00084EC91E00E9485218091D4029091D50225
:1013C0000E94910B823009F46AC048F4882381F0AE
:1013D000813009F460C060E088EE91E00CC0833099
:1013E00009F461C08430B9F760E082EE91E003C097
:1013F00060E08AEC91E00E94852165E080E00E9437
:10140000A32060E08EEE91E00E948521DC2FD27057
:101410008EE591E0C1FF02C088E591E060E00E94A6
:10142000852168E080E00E94A32010926E04209144
:10143000790230917A02EAE0F0E0C901BF010E942E
:10144000B232805D80936D0470937A02609379026A
:10145000CB01BF010E94B232805D80936C04C90150
:1014600064E670E00E94B232605D60936B046DE0F0
:1014700080E00E94A32082E090E0D11109C0809119
:101480007702909178028D3391058CF090E080E0A6
:101490000E94DD087BCF60E080ED91E0ACCF60E0A2
:1014A00086ED91E0A8CF60E08CED91E0A4CF9C01A7
:1014B000215031092B33310518F481E090E0E8CF59
:1014C000892B19F484E090E0E3CF83E090E0E0CF53
:1014D00080917C0290917D02892B99F00E94692B6A
:1014E00020917C0230917D02821B930B8F3F9F479E
:1014F00040F410927D0210927C0210920201109230
:101500007B020895FB0182819381805D9A4881600E
:1015100090937D0280937C0281E080930201089584
:101520008530B8F46830A8F4443198F450E094E180
:10153000699F400D511D1124FA0190EA899FE00D29
:10154000F11D1124EE0FFF1FE459FB4F859194917B
:10155000089581E090E008950E94900A089581E046
:1015600008950E94AF0A089581E008950E94820ABA
:10157000089508950E94B90A0895A6E0B0E0E3EC4A
:10158000FAE00C942F3349835A839E83309183026F
:1015900089819A8131111AC03E81332399F0222327
:1015A00089F00E947B10182F682F89819A810E94F0
:1015B000571069817A81812F0E94A0172696E3E057
:1015C0000C944B330E946910182FF3CF0E947B10AC
:1015D00069817A81F1CFFC01262F4081518162819E
:1015E0007381848195810E94BD0A0895CF93DF9312
:1015F000EC0161E00E94EB0ABE010E94B10ADF919A
:10160000CF910895CF93DF93EC0160E00E94EB0A45
:10161000BE010E94BA0ADF91CF91089508950E94F9
:101620002C0F0E940E0B2FEF84E39CE02150804092
:101630009040E1F700C0000008950E940F0B0E9447
:10164000D02B08950E940F0B0E94E12B08950F9359
:101650001F93CF93DF938C0161E00E94EB0AEC01B2
:10166000F8018581882319F0CE010E94D125B801A7
:10167000CE010E94B60A811106C080E0DF91CF91B1
:101680001F910F910895B801CE010E946A25882309
:10169000A1F3B801CE010E940024882371F3B801A0
:1016A000CE010E94DC24882341F3F8018581882340
:1016B00061F0C330FCE7DF07E9F058F4C115ECE74F
:1016C000DE07A9F0C130DC47B9F0C8010E94B40AB6
:1016D000D5CFCB358CE7D807A9F0CC35ECE7DE07C2
:1016E00071F0CA35DC4789F70E94B114EECF0E9431
:1016F0001D0BC3CF0E94B9140E94220BBECF0E94C3
:10170000A714E3CF0E94B514E0CF0E94E32A0E9401
:10171000D20B0E94E52208950E94D60B0E94E82A6F
:101720000895292F332740E02115310511F0C90113
:1017300048E09C0164E0369527956A95E1F721150C
:10174000310511F04C5FC9019C01369527953695FE
:1017500027952115310511F04E5FC90196958795A2
:10176000892B09F04F5F842F0895089581E0089533
:101770000895CF93DF93D82F0E94B60BC82F8823EC
:1017800019F08D2F0E94B80B8C2FDF91CF91089507
:101790000895CF93C82F0E94B50B8C2F0E94B90BD0
:1017A000CF91089580E00E94C90B08950E946C2992
:1017B0000E94C90B0895CF930E946C29C82F809175
:1017C0007E028C1779F0C0937E020E94752B609385
:1017D0007F027093800280938102909382028C2F0B
:1017E0000E94C90BCF910895ADE0B0E0EAEFFBE0B5
:1017F0000C943033488759876A877B878C879D870D
:1018000091110E94DF131F8286E0FE013896DE01EF
:10181000119601900D928A95E1F78D8181110DC08D
:1018200029813A814B815C816D817E818F810E940B
:1018300012132D96E2E00C944C33CE0101960E94D7
:10184000F60A8111EDCFF5CFFC012481213021F47E
:10185000808191810E94AD100895662329F00E9435
:10186000C11D0E94941E08950E941B1EFACFCF93A3
:10187000C82F8823B9F08CEF8C0F813AA8F46C2F15
:1018800080910301909104010E94092A882329F084
:101890008C2F0E949F130E9418148C2F0E94971364
:1018A0000E941814CF91089580E28C0F883048F47C
:1018B000C77081E001C0880FCA95EAF70E94C21381
:1018C000EFCFEBE5EC0FE33040F4F0E0E65DFD4FE9
:1018D000808190E00E94AB29E5CFE8E5EC0FEB3189
:1018E00050F4F0E0EE0FFF1FEC50FE4F808191812D
:1018F0000E94D029D7CF83E38C0F833198F661E023
:101900008C2F0E942D0CCECF882381F19CEF980F55
:10191000913A28F40E949F130E941814089590E2AF
:10192000980F983050F4877091E001C0990F8A9514
:10193000EAF7892F0E94C813EFCF9BE5980F9330E9
:1019400028F490E080E00E94AB29089598E5980F74
:101950009B3128F490E080E00E94D029089593E321
:10196000980F933118F460E00E942D0C08951F9396
:10197000CF93DF93182FEB010E94370C209739F497
:10198000812F0E94840CDF91CF911F9108958FE9E0
:101990009FE00197F1F700C000002197EFCF70E0C2
:1019A00060E0893311F460E570E00E94B70C08959F
:1019B000882321F00E94C2130E94181408958823DE
:1019C00021F00E94C8130E9418140895B0E0A0E00E
:1019D000ECEEFCE00C9429336C01D62FC72FFC01F0
:1019E0001581068102950F700E94B813E82E882396
:1019F000E9F0E12E1123D1F08C2F807F803451F05B
:101A000080E28D0F8830F8F0011104C08C2F807EA9
:101A10008032C9F08091740482FF15C082E00E9478
:101A20007B140E94B81391E0E82EE926BC2EB294F4
:101A30009FE0B922FBE0FB15B8F1EB2DF0E0E75297
:101A4000FC4C0C940733E12CF1CF0C2F0F70C07FAE
:101A500011F00295007F112399F0002359F080E2E4
:101A60008D0F883010F0D11107C0802F0E94C21353
:101A70000E9418148D2F5AC0802F0E94D213F8CFC5
:101A80008D2F0E94840C002379F080E28D0F883026
:101A900010F0D11104C0802F0E94C81303C0802F02
:101AA0000E94D8130E941814EB2DE850FF0B3497B6
:101AB00020F40E946C290E94C90BEE2089F00E943C
:101AC000B41380FD0DC0F60115820E94AE130E9472
:101AD000B50FC6010E94F30E0E94AE130E94C50FFF
:101AE000CDB7DEB7E9E00C9445332C2F2F70F22EE2
:101AF000C07FC03219F0F29480EFF822DD2341F06C
:101B0000D130D1F1112309F444C00023F1F0B2CF58
:101B10008091740482FD15C0112359F0FF2029F033
:101B20008F2D0E94C2130E94181480E00E94370C6F
:101B3000BBCF80E00E94840CFF2009F4B5CF8F2D2D
:101B4000ABCF112369F0011104C08F2D0E94D80C76
:101B5000ABCF013009F0A8CF8F2D0E94F613A4CF90
:101B60000111A2CF8F2D0E94DF0C8F2D0E94021435
:101B70008F2D0E94E61398CF112321F0063008F034
:101B800093CFE3CF053008F08FCF8F2D0E94DF0C6D
:101B90008BCF0023D1F3D93349F43FEF87EE93E0A5
:101BA000315080409040E1F700C000008D2F0E942E
:101BB000840C7ACF8C2F86958695837069F081305E
:101BC00009F072CF8D2F9C2F9370111102C080E00D
:101BD00090E00E94D02968CF8D2F9C2F9370111117
:101BE00002C080E090E00E94AB295ECF612F8D2F74
:101BF0000E942D0C59CF8C2F8370A1F5111154CF59
:101C00004D2F429546954770440F440F2D2F2F704E
:101C100030E0042E02C0220F331F0A94E2F790E056
:101C200080E0D4FF09C08FE090E002C0880F991FC8
:101C30004A95E2F780959095C695C695C370822B1C
:101C4000932BC23049F058F4C13019F00E94850F2F
:101C50002BCF0E947C0F28CF0E948E0F25CF0E9491
:101C6000790F22CF8695112311F08C2F8170882354
:101C700009F41ACF4D2F429546954770440F440FF3
:101C80002D2F2F7030E0042E02C0220F331F0A9434
:101C9000E2F790E080E0D4FF09C08FE090E002C05E
:101CA000880F991F4A95E2F780959095C695C6953D
:101CB000C370822B932BC23049F058F4C13019F015
:101CC0000E94F00FF1CE0E94E70FEECE0E94F90FB6
:101CD000EBCE0E949D0FE8CECF70112329F08C2F00
:101CE0000E94B50F8D2F32CF8D2F0E94DF0C8C2FCD
:101CF0000E94C50FD9CED23F41F160F4D03FB9F078
:101D0000D13F81F0112309F446C00111B3CE8C2FCD
:101D10008F711FC0D33F01F1D43FA1F780917404AC
:101D200082FD24C08C2F8F71112311F312C0112357
:101D300041F0053008F0B8CE8C2F8F710E94D70F7C
:101D4000B3CE063008F0B0CEF7CF8C2F8F711111C3
:101D5000CFCF0E94B50FA8CE112329F08C2F8F7101
:101D60000E94A90FA1CE0E94A40F9ECE112349F07C
:101D7000CF718C2F0E94B50F63E08C2F0E945D14F1
:101D800093CE81E00E947B14023008F48DCE82E075
:101D90000E947B1489CE002359F0D93309F006CF75
:101DA000EFEFF7EE23E0E150F0402040E1F7FCCE0A
:101DB0008C2F8F719DCF0F931F93CF93DF93EC01E7
:101DC000688179818D810E94B8108C010E94021077
:101DD0000E94780FB801CE010E94E60CDF91CF91EE
:101DE0001F910F910895CF93DF93EC018C8188238D
:101DF00099F0CE010E94270B811111C00E94B813E7
:101E0000882351F08D81882339F08091740482FFFA
:101E100003C082E00E947B14DF91CF910895CE0130
:101E20000E94DB0ECE010E94020BF6CF90E080E014
:101E30000E94AB2990E080E00E94D0290E94DF132D
:101E40000E9418140E94B01E0E94941E08950E94C1
:101E5000A7130E94160F08950E94CF130E94270F08
:101E6000089592959F70963091F058F4925F9F700C
:101E7000923058F4803F19F030F4883E30F481E01D
:101E800008959A5FF4CF843FD1F380E00895883EAF
:101E9000B0F3813FD1F7F3CFFC012481222339F045
:101EA000808191810E94AD100E94310F089580E0E1
:101EB0000895A6E0B0E0EFE5FFE00C9430332696FD
:101EC000E2E00C944C33A7E0B0E0E9E6FFE00C94CC
:101ED00030332796E2E00C944C3308950E946D0F46
:101EE00008950E946E0F9093D7028093D6020895B2
:101EF00008950E94710F08952091D6023091D70263
:101F0000822B932B0E94710F08952091D60230915D
:101F1000D702822393230E94710F08952091D60245
:101F20003091D702822793270E94710F08950E9453
:101F30006D0F08950E94970F08950E949A0F909335
:101F4000D5028093D402089590E080E00E949D0F16
:101F5000089521E030E0A90102C0440F551F8A9581
:101F6000E2F7CA010E949D0F089521E030E002C00F
:101F7000220F331F8A95E2F78091D4029091D50207
:101F8000822B932B0E949D0F089521E030E002C028
:101F9000220F331F8A95E2F7209530958091D40265
:101FA0009091D502822393230E949D0F089521E0F2
:101FB00030E002C0220F331F8A95E2F78091D402ED
:101FC0009091D502822793270E949D0F089520911A
:101FD000D4023091D502822B932B0E949D0F08953D
:101FE0002091D4023091D502822393230E949D0F29
:101FF00008952091D4023091D502822793270E9420
:102000009D0F08950895262F277091E001C0990F24
:102010002A95EAF723E0769567952A95E1F7660F0A
:10202000771F660F771FFA01E60FF71F50E040E0B9
:10203000682F70E08191DF0111979B01042E02C08F
:10204000369527950A94E2F72170219528272923B0
:1020500028272C934F5F5F4F4430510559F708955F
:10206000A82FA77023E0969587952A95E1F7880F0A
:10207000991F880F991FFB01E80FF91F50E040E0FE
:1020800080E0219130E00A2E02C0369527950A940F
:10209000E2F721703327042E01C0220F0A94EAF7D9
:1020A000822B4F5F5F4F4430510559F70895262F1B
:1020B000983070F4843160F4682F70E084E1989F68
:1020C000600D711D112444E852E0822F0E9403101C
:1020D0000895292F983068F4843158F490E064E82A
:1020E00072E034E1239F800D911D11240E94301075
:1020F000089580E00895B0E0A0E0E1E8F0E10C94FC
:1021000029337C010091D4021091D5028091D6022E
:102110009091D702082B192BCFE0D0E0CC24C394A8
:10212000D12CBC2EC6010C2E02C0880F991F0A9418
:10213000E2F780239123892B49F4219790F7B12C62
:102140008B2DCDB7DEB7E9E00C944533B7018C2F6A
:102150000E94AC17019789F3F3CFCF93DF93EC0183
:102160000E947B10BE010E94AC17DF91CF910895B1
:102170001F93CF93DF93EB0190918302992339F062
:10218000CB010E94AD10DF91CF911F91089588235C
:1021900069F0CB010E947B10182F682FCE010E949E
:1021A0005710BE01812F0E94AC17EDCFCB010E94CA
:1021B0006910182FF6CF1F93CF93DF93C091D802E9
:1021C00017E08091D9028C1304C0DF91CF911F9149
:1021D0000895D0E01C9FF0011D9FF00D1124E652E0
:1021E000FD4F2081318142815381648175818681D7
:1021F0000E94630F2196C770E4CF209112033091A3
:1022000013034091140350911503609116037091CC
:102210001703809118030E94630F0895CF93DF93F3
:1022200080911803807F09F04DC0809117038823A7
:1022300009F448C0E091D8025091D902C09113032B
:10224000D0911203609114037091150347E05E175B
:10225000C9F18E2F90E0E49FF0011124E652FD4F6A
:102260002481222391F1489FF001499FF00D112410
:10227000DF01A652BD4F11962C9111972C1325C04A
:102280002C912D1322C015962C91159721111DC04C
:1022900012962D913C91261B370B283C3105A8F452
:1022A000809118038F70806180931803E052FD4F76
:1022B00080818F708061808382E193E00E94F30EC1
:1022C0000E94DB10DF91CF910895FC013196E770F9
:1022D000BECF482F2091D8029091D90257E0291300
:1022E00002C080E0089530E0529FF001539FF00D4E
:1022F0001124E652FD4F8181681306C08081481386
:1023000003C085818111EECF2F5F3F4F2770E7CF4C
:10231000A4E1B0E0EEE8F1E10C9426338C0186E014
:10232000F801DE011F9601900D928A95E1F7F80100
:102330008481E58092E1A92E93E0B92E9091160355
:1023400091111FC08823D1F0EE20A9F0C8010E948E
:102350004C0FF82E882379F087E0F801D501019021
:102360000D928A95E1F7C5010E94240C0E940E117E
:102370000E94FD105FC0C8010E94F30EFF24F39479
:1023800059C0C080D18082809380F0901703209143
:10239000140330911503A401421B530BFF2009F4D1
:1023A000F9C0483C510508F0A7C0882309F442C091
:1023B0009091130380911803282F207F09F05CC0AF
:1023C0009D1116C090911203C91212C0E1104EC0A7
:1023D0008F708061809318030E94FD1082E193E06A
:1023E0000E94F30E80911803F8018683F12C22C01D
:1023F000E1103CC06D2D8C2D0E9469116D2D8C2D2E
:102400000E946911E82E8111F1CFCF86D88A8F857D
:1024100098890E94AD10292F22952F70243078F4CE
:102420009F702230A8F09923B9F0F8019681907F2F
:1024300099F4FE2C8F2D6496ECE00C9442332A5FC5
:102440002F70223068F0C8010E94F30EEF2CF1CFFC
:10245000992311F0882369F3805E883050F3F3CF1D
:10246000803F38F3815F833070F7E3CF80911803AA
:10247000816080931803BACF9D1113C0909112030D
:10248000C9120FC0E1100DC08683C8010E94F30E6F
:1024900087E0F801A2E1B3E001900D928A95E1F79F
:1024A00067CFC8010E944C0F882309F464CFEE2047
:1024B00009F461CF80911803803288F020911203D3
:1024C00030911303398728879B868A86909116035B
:1024D0009C871D868E87CE0108960E94F30E87E0AA
:1024E000F801A2E1B3E001900D928A95E1F70E9414
:1024F0000E110E94FD1042CF90911803292F207FCA
:10250000A1F4682D9A8A898AA6017A899E2D0E9453
:10251000590F82E193E00E94F30E87E0F5011192DA
:102520008A95E9F70E94FD1061CF882309F482CFD4
:10253000809113038D1110C080911203C8120CC03A
:10254000E1100AC09683C8010E94F30E87E0F501EE
:1025500011928A95E9F76ECFC8010E944C0F88232B
:1025600009F409CFEE2009F406CF809118038032D8
:1025700008F4B5CF20911203309113033A832983D5
:102580009C828B82909116039D831E828F83CE0145
:102590000196A3CF483C5105B8F5882309F4EECE47
:1025A000FE2CEE2009F4E7CE809113038D111EC09E
:1025B00080911203C8121AC08091180380FD0DC0CB
:1025C000982F907F51F08683903F09F45ECF982F2B
:1025D000907F905F8F70892B57CF87E0F801A2E141
:1025E000B3E001900D928A95E1F724CFC8010E94D3
:1025F0004C0F811174CF8091180381608093180370
:10260000C8010E94F30E16CF682D9A8A898AA60106
:102610007A899E2D0E94590F87E0F50111928A95C3
:10262000E9F7A6CEAEE0B0E0E8E1F3E10C942F3399
:10263000288739874A875B876C877D878E87CE019D
:1026400008960E9488118823B1F06C85662341F0BA
:10265000288539854A855B857D858E850E94630F37
:1026600017E08091D8029091D90289133DC02E962F
:10267000E3E00C944B3387E0FE013896DE011196BF
:1026800001900D928A95E1F78C85882349F320917A
:10269000D90230E0C9010196877099274091D8028C
:1026A0004817190699F097E0929FD001939FB00DBB
:1026B0001124A652BD4FFE01319601900D929A95BC
:1026C000E1F78093D9020E94DB10CACF0E942C0F41
:1026D0001092D9021092D80287E0E2E1F3E0DF0124
:1026E0001D928A95E9F7BCCF819FC00111248652C3
:1026F0009D4F0E948811882309F4B9CFE091D80238
:102700001E9FF0011124E652FD4F2081318142814C
:1027100053816481758186810E94630F8091D80204
:1027200090E00196877099278093D8029ACF682FFE
:1027300080910301909104010E94892A0895682FD5
:1027400080910301909104010E94972A089580913D
:102750000301909104010E94A52A089580913903F4
:10276000869586958695089580913903877008959A
:1027700090913903977081E009F480E00895809189
:102780005D03089590915D03892B80935D03089507
:10279000809590915D03982390935D030895109226
:1027A0005D03089590915C03892B80935C030895E9
:1027B000809590915C03982390935C030895109208
:1027C0005C03089508950E94E213089590913A03DE
:1027D000292F282331F08095892380933A030E9482
:1027E000E313089508950E94F213089590913B0316
:1027F000292F2823281729F0982B90933B030E9418
:10280000F313089590913B03292F282331F08095ED
:10281000892380933B030E94F313089580913B0327
:10282000882329F010923B0380E00E94F31308955F
:10283000CF93DF93E0910301F091040180915D0358
:102840008083E0910301F0910401808190915C0309
:10285000892B808390913B03992381F0E0910301C0
:10286000F09104018081892B8083809103019091F4
:1028700004010E94F52981110E940E14C0910301E8
:10288000D091040140E250E069E173E0CE010E9482
:102890006F33892B59F080E2FE01A9E1B3E001908A
:1028A0000D928A95E1F7CE010E948329DF91CF91A5
:1028B000089508950E94591408959091740492FF08
:1028C00011C098E0899F90011124622B6093390315
:1028D0000E94B50F809139038695869586950E9452
:1028E0005A1408950E94B50F08951092390380E09C
:1028F0000E945A14089590913903809589238093FA
:102900003903282F277069F4891759F090917404BE
:1029100092FF07C08695869586950E94C50F0E94F6
:10292000751408959091740492FB222720F92817BA
:1029300069F080FB92F990937404809173049091F4
:1029400074040E94DA1482E00E947B14089580913E
:10295000740482FB882780F991E089270E949214F1
:10296000089581E00E949214089580E00E949214DC
:1029700008956FEF7FEF90E080E00E94C1330895EB
:1029800090E080E00E948D3321E0863E9E4F09F06A
:1029900020E0822F089582E090E00E948533089520
:1029A00083E090E00E948533089584E090E00E94E7
:1029B0008D330895BC0184E090E00E94C1330895F6
:1029C000AB01BC018FE090E00E94B5330895AB01EC
:1029D000BC0183E190E00E94B533089560E070E0AF
:1029E000CB010E94E714089560E070E0CB010E94E3
:1029F000E0140E94EE140895A8E0B0E0E2E0F5E1F2
:102A00000C94303366EE7EEF90E080E00E94C1339C
:102A100060E082E090E00E94A33360E083E090E019
:102A20000E94A3331092D7021092D60260E074E1A4
:102A300084E090E00E94C13360E086E090E00E9474
:102A4000A3336FEF87E090E00E94A33340E050E0B3
:102A5000BA0188E090E00E94B53360E084E290E043
:102A60000E94A33360E087E190E00E94A33360E01E
:102A70008CE090E00E94A33360E08DE090E00E9443
:102A8000A33319821A821B821C821D821E821F821E
:102A9000188648E050E068E170E0CE0101960E949F
:102AA000933340E050E0BA0180E290E00E94B533F9
:102AB0000E94F4142896E2E00C944C330E94FC141B
:102AC0000895682F8EE090E00E94A3330895A6E059
:102AD000B0E0EDE6F5E10C942E330E94692B8C01F9
:102AE00080915E0390915F038017910781F01982B6
:102AF0001A820E94692B682F49815A81792F80E0C0
:102B000090E00E94F40B10935F0300935E032696FF
:102B1000E4E00C944A330E94BC18609384037093E1
:102B2000850380938603909387036093800370935B
:102B300081038093820390938303089508950895F9
:102B40000E949F15089508950E94A315089581E09D
:102B5000089586ED98E10E9462290E949E150E94C8
:102B6000A01508950E94391B0895089508950E94A4
:102B7000B5150E94B61508950E94F5180E94C80B5D
:102B800008950E94602B0E9496180E94541B0E9478
:102B9000581A0E94BC150E94CE1F80E00E94492056
:102BA0000E945E1B0E94A41508950E94391B81118A
:102BB0000E94E6250895AAE0B0E0E1EEF5E10C946C
:102BC00021330E94A715082F811112C00E9467159A
:102BD00000E00E94D5150E94942301110E94E0217B
:102BE0000E94D21E0E94DB0B2A96E1E10C943D3339
:102BF0000E94B71A20E6A22E23E0B22E750110E043
:102C0000D7014D905D906D907D907D01812F0E9448
:102C10001A191F5F183009F46EC046165706680669
:102C2000790671F38091880381FD0E9425190E9425
:102C3000B215882E10E033243394812F0E941A1984
:102C40006B017C01F50141905190619071905F01A1
:102C5000C414D504E604F70409F446C0DC01CB0132
:102C600084259525A625B7258F839887A987BA87B8
:102C7000912C412C512C320143948F819885A98548
:102C8000BA8584219521A621B721892B8A2B8B2BEC
:102C9000E9F08820D9F099821A830E94692B9C83DD
:102CA0008B833D8221E0D701C60184219521A62195
:102CB000B721892B8A2B8B2B09F420E049815A817B
:102CC0006B817C818D81922F0E94F40B9394440C34
:102CD000551C661C771C94E19912CFCFF5013497EF
:102CE000C082D182E282F3821F5F183009F0A5CF43
:102CF0000E948B156ECF461657066806790609F0B6
:102D000091CF64CF1F93CF93DF930E94B117EC0153
:102D1000C11580E5D807F0F5C11580E4D80708F0A3
:102D20009CC0C03ED10520F5CD3CD10508F082C045
:102D3000C83AD10578F4C53AD10508F073C0C1305E
:102D4000D10519F1209709F1C430D105F0F4D0E094
:102D5000C0E01BC0C33CD105D0F7C85AD0E0CC0FAF
:102D6000DD1FC35DDD4F0990D881C02DD4640DC037
:102D7000C11580E2D80708F0D1C0C11581E0D8079D
:102D800008F05AC0C83ED10510F7CE01DF91CF91AF
:102D90001F910895C03682E5D80718F5C03482E542
:102DA000D80708F06BC0C03282E5D80708F05FC0D2
:102DB000C11582E5D80708F497C02C2F26952695D3
:102DC00080E2289F900111248C2F8370C1E0D0E015
:102DD00002C0CC0FDD1F8A95E2F7C22BD32BDD6832
:102DE000D4CFC03A82E5D80760F4C03882E5D8076E
:102DF00008F459C0CF71D0E0DC2FCC27C46FD06A63
:102E0000C4CFC03C82E5D80708F462C0C03E82E56A
:102E1000D80708F09CCFDC2FCC27CC27DF71C06F00
:102E2000D06AB3CFC55AD0E0CD59DD4FC881D0E0CC
:102E3000D064ABCFD065A9CF8D2F0E945318182F27
:102E4000CE0199270E94B117C12FD0E0DC2FCC27EB
:102E5000CC27DF71C82BD92B98CFCE0199270E94A0
:102E6000B117CC27DF70C82BD92BD06A8ECFCF718A
:102E7000D0E0DC2FCC27C16FD06A87CF2C2F2695CE
:102E80002695277080E2289F900111248C2F837053
:102E9000C1E0D0E002C0CC0FDD1F8A95E2F7C22B63
:102EA000D32BDC6872CF2C2F26952695277080E2D5
:102EB000289F900111248C2F8370C1E0D0E002C0C4
:102EC000CC0FDD1F8A95E2F7C22BD32BDA685DCFDA
:102ED0008C2F8F710E945318C82FD0E0DC2FCC2785
:102EE000CC27DF71D06251CF8C2F8F710E94531885
:102EF00055E0D695C7955A95E1F7CF70D0E0DC2F15
:102F0000CC27282F30E084FF05C044E0220F331F78
:102F10004A95E1F7C22BD32BD06937CF8D2F8F7114
:102F20000E945318182FCE0199270E94B117C12F64
:102F3000D0E0DC2FCC27CC27DF71C82BD92BD2CF08
:102F4000462F783030F4643120F4672F0E94AC0AA9
:102F5000089590E080E008950E94A0170E948216D4
:102F6000089582389105B9F1B0F48133910509F4DF
:102F70007DC048F48932910509F46DC08A3291050B
:102F800009F47BC008958533910509F45FC0893346
:102F9000910509F10895833E9105D9F138F4803EF9
:102FA000910529F1823E910579F10895863E9105BA
:102FB000D9F1873E910509F43EC0843E910541F563
:102FC0002091740421FF24C08091730484FD19C0F2
:102FD00087EE90E0089520917304237009F05AC0A1
:102FE0002091740423FF14C089E290E00895209199
:102FF000730420FD38C03091740430FF09C024FFF1
:1030000043C090E080E008952091730422FDF7CF43
:1030100008952091730422FD3AC03091740430FD6C
:1030200039C024FFF5CFEDCF2091730423FFF0CFFB
:1030300024FDE7CFCDCF2091730423FD2EC0309126
:10304000740431FFEECF84EE90E008952091730474
:1030500025FFDECFC9CF2091730425FD21C020912B
:10306000740423FFD5CF89E390E0D2CF209173047D
:1030700026FFCECF8AE290E008952091730426FFC8
:10308000C7CF81E390E0089583EE90E0089582EE4B
:1030900090E0089580EE90E0089586EE90E0089527
:1030A00085E390E008959091730492FF06C0282F65
:1030B00028712830F9F4877F846093FF06C0282F99
:1030C00028712831F1F4877E84612091740420FFF7
:1030D00006C0382F38713830D9F4877F816021FFDE
:1030E00006C0282F28712831D1F4877E816194FD94
:1030F000877E0895282F24712430F9F68B7F88600D
:10310000DCCF282F2471243101F78B7E8861DDCF3D
:10311000382F3171313019F78E7F8860E0CF282F3A
:103120002171213121F78E7E8861E1CF10926F04E9
:103130001092700410927104109272040895CF924C
:10314000DF92EF92FF926B017C010E94391B81118B
:103150000EC00E94752BC61AD70AE80AF90AC09257
:103160006F04D0927004E0927104F0927204FF90A8
:10317000EF90DF90CF9008950F931F930E94391B1B
:10318000882329F00E94752B1F910F9108950E94AA
:10319000752B00916F04109170042091710430918F
:1031A0007204600F711F821F931FEECF80E008959D
:1031B0000E94B91408950E94B71A2FEF86E791E094
:1031C000215080409040E1F700C000000E94B71AF3
:1031D00080E00E941A1960FF04C00E94D8180E9463
:1031E000D02B08950E94DB1808950E94C01481110D
:1031F00002C00E945E150E94CB14809388030E9437
:10320000D51490937404809373040E94F2180E9462
:10321000D01490E00E94790F8091D4029091D50251
:103220000E949A0F089508950E94131908950E940C
:10323000680A089594E0899FF0011124EA56FB4F33
:1032400060817181828193810895089580EA8A95D1
:10325000F1F7089500C008950E9426190895089571
:103260000E942F190895A0E1B0E0E9E3F9E10C9480
:103270002C330E94391BF82E6091B604882309F480
:1032800048C080E1E82E8E010F5F1F4FF8012E2D00
:1032900011922A95E9F7E4E06E9FC0011124B8016C
:1032A0008A569B4F0E946C1B8823D1F08091750435
:1032B000F4E08F9FC001112440E150E0B8018A562C
:1032C0009B4F0E946F3321E020938903892B91F457
:1032D000F12C0E9417198F2D6096E6E00C9448336C
:1032E000809189038823A1F3F8011192EA94E9F708
:1032F00010928903A0917504F4E0AF9FD0011124CE
:10330000AA56BB4F80E1F80101900D928A95E1F732
:10331000E0CF24E0629FB00111246A567B4F809178
:103320007504E4E08E9FC00111248A569B4F0E94D1
:10333000F31B0E943019CFCFF894E82FE295EF707D
:10334000F0E031A1282F2F7081E090E001C0880FBC
:103350002A95EAF7982F9095932391A392A1892B10
:1033600082A378940895CF93DF93C9E1D1E0899146
:103370008F3F11F00E949C1981E0CD31D807B9F739
:10338000C5E0D1E089918F3F11F00E949C1981E046
:10339000C931D807B9F7DF91CF9108954F925F9265
:1033A0006F927F928F929F92AF92BF92DF92EF9235
:1033B000FF920F931F93CF93DF938C01D62EC62FCE
:1033C000D0E0CE01875E9E4F7C01FC0120812F3F23
:1033D00009F45EC0F894E22FE295EF70F0E031A1BD
:1033E0002F7081E090E001C0880F2A95EAF7932FB3
:1033F000982B91A392A18095892382A378940E940F
:103400002A19E5E0F1E029E131E0412C512C3201AB
:103410004394812C912C540181918F3F89F0A82FE6
:10342000A295AF70B0E090964C9150E08F7002C0C2
:10343000559547958A95E2F7D301C20140FF03C035
:1034400080E090E0DC01882A992AAA2ABB2A440C51
:10345000551C661C771C2E173F07F1F6F70180817B
:103460008F3F11F00E949C1961E081149104A10426
:10347000B10409F460E08D2D0E942C19CC0FDD1FE2
:10348000CC0FDD1FC00FD11F88829982AA82BB8218
:10349000DF91CF911F910F91FF90EF90DF90BF9040
:1034A000AF909F908F907F906F905F904F90089516
:1034B000A4E1B0E0EEE5FAE10C94303380911D0117
:1034C000811131C086E68093190187E980931A0142
:1034D00084E980931B0187EF80931C01FE013B96DA
:1034E0008AE0DF011D928A95E9F781E3898383E30E
:1034F0008A8382E38B8386E38C8386EC8D8384E3EB
:103500008E8385E38F8386EF888785EF898781E9BE
:103510008A873A97A5E0B1E0CE01459621912D9397
:10352000E817F907D9F780911D0194E0811190E027
:103530009093B60484E0891B809375040E94B319AC
:1035400080E2E6E9F4E0DF01982F1D929A95E9F711
:10355000E6E7F4E0DF011D928A95E9F784E00E9436
:10356000F81A0E9414196496E2E00C944C33A0E21D
:10357000B0E0EDEBFAE10C942D338E010F5F1F4F9D
:1035800080E2F80111928A95E9F7F12C6F2DC801BC
:103590000E94CE19F394F4E0FF12F8CF40E250E01D
:1035A000B80186E794E00E946F3321E0009709F4A8
:1035B00020E0892B41F080E2F801A6E7B4E0019019
:1035C0000D928A95E1F76091B60484E0689FB0019E
:1035D00011246A567B4F44E086E794E00E94F91A72
:1035E000182F0E943319812BA096E5E00C944933E3
:1035F0000895CF92DF92EF92FF920F931F93CF9394
:103600006C017B01042F222349F081E080938C031D
:103610000E94692B90938B0380938A03C0918C0343
:10362000C1110AC0C0E08C2FCF911F910F91FF9064
:10363000EF90DF90CF90089580918A0390918B0353
:103640000E94812B059770F384E0089F800111246C
:10365000A801B601C7010E946F33892B41F0A80170
:10366000B601C7010E947C3310928C03DCCFC0E00E
:10367000FBCF80918F03811107C00E948532882380
:1036800051F081E080938F0381E090918F0391301E
:1036900009F080E0089582E080938F030E948032D9
:1036A000F3CF0E94391B08950E94511B80931D0186
:1036B0000E94391B81110E94A21B08950E94391B90
:1036C000811102C00E94A51B089581E09091900392
:1036D0009A3008F080E008950F931F93CF93DF9303
:1036E000EC018B01809190038A30B8F4B801CE01CF
:1036F0000E94F01BC82F811122C0809190038F3F40
:10370000B9F40E94692B90938E0380938D038C2FC4
:10371000DF91CF911F910F91089580918D0390912A
:103720008E030E94812B843F914000F7C0E0EFCFD1
:103730008F5F809390038A3020F7C1E0E8CF10922A
:103740009003E5CF0E94002808950E940328089561
:10375000B0E0A0E0EEEAFBE10C942B337901C82F36
:10376000880FDD0B41155105A9F0FE0193E0EE0F26
:10377000FF1F9A95E1F7E25EFE4F818192818F569D
:103780009C4F208130E04217530708F49A01A901A9
:103790000E947C33CE010E94EC28D82E8823D1F0E1
:1037A00001151105B9F083E0CC0FDD1F8A95E1F713
:1037B000FE01E25EFE4F438150E00417150708F456
:1037C000A801C25EDE4F6C817D816F567C4FC701C0
:1037D0000E947C338D2DCDB7DEB7E7E00C944733E4
:1037E0000E94E21C08950E94F91C0895A4E0B0E034
:1037F000ECEFFBE10C942E336091BE037091BF039C
:103800008091C0039091C1030E94902B11E0643617
:1038100071058105910518F10E94BC186E5F7F4FFC
:103820008F4F9F4F69837A838B839C8310E000E0E6
:1038300030E020E044E050E0BE016F5F7F4F82E067
:103840000E94A81B182F882351F00E94752B6093AB
:10385000BE037093BF038093C0039093C103812F75
:103860002496E4E00C944A33B0E0A0E0EAE3FCE103
:103870000C9428337C015B016A010E94651B01E006
:1038800010E0882311F00AE010E0C1E0D0E0B501BB
:10389000C701F6010995811104C021960C171D0777
:1038A0002CF4CDB7DEB7EAE00C944433CC9F900102
:1038B000CD9F300D300D112490E080E045E34A9516
:1038C000F1F70000019682179307C1F7E0CFA1E15D
:1038D000B0E0EDE6FCE10C9428337B01C090660279
:1038E000D090670201E010E09E012F5E3F4F50E054
:1038F00040E070E060E080E00E94A81B182F882361
:1039000009F448C056018FEFA81AB80A6091BA03AB
:103910007091BB038091BC039091BD030E94902BDA
:10392000643671058105910568F100E110E09E01A2
:103930002F5F3F4F50E040E070E060E081E00E9488
:10394000A81BD82E60E170E0C5010E94CF1F11E0D6
:103950009989981310E01D2141F10E94752B609305
:10396000BA037093BB038093BC039093BD0380E1C3
:10397000FE013196AAEAB3E001900D928A95E1F733
:1039800011E013C060E170E0C5010E94CF1F99896A
:103990008913CBCF80E1F6013196DE0111960190BB
:1039A0000D928A95E1F71111E2CF80E1EAEAF3E0A6
:1039B000D70101900D928A95E1F7812F6196EAE097
:1039C0000C9444330F931F93CF93DF93EC018B013F
:1039D00047E65CE10E94341C882331F046EF5BE14E
:1039E000B801CE010E94341CDF91CF911F910F913D
:1039F00008950F931F93CF93DF93C0916602D091E8
:103A00006702CE01019620E1FB01DC0101900D92DD
:103A10002A95E1F760E170E00E94CF1F88836989F1
:103A20007A898B899C890091A6031091A703209124
:103A3000A8033091A903601771078207930751F01B
:103A40006093A6037093A7038093A8039093A903A0
:103A50000E949F18DF91CF911F910F9108950E94AE
:103A6000562D0E94C1150E94632D08950E94682D55
:103A70000E94DB150E94822D08950E94022B0E9455
:103A80003C2D0E94A9150E942F1D0E94361D0E94E8
:103A9000B715FBCF8091C80380FF0DC060913B013B
:103AA00070E0660F771F6038710570F5611571055C
:103AB00069F1862F089581FF07C060913B0184E082
:103AC000689FB0011124EFCF60913B0182FD0AC0D5
:103AD0008091C7038823A9F020913A0160913B01AE
:103AE000821710F088E0ECCF869FC001112433E0EC
:103AF000880F991F3A95E1F7622F70E00E94B23269
:103B0000D2CF68E070E0D5CF8FE7089581E00895C7
:103B10008091C80380FF0CC06091370170E07595FB
:103B20006795759567956115710549F1862F08951B
:103B300081FF06C06091370170E075956795F3CFFE
:103B40006091370182FD0BC09091C6039923A1F0CB
:103B50006091360180913701961738F0682F70E038
:103B60006038710500F38FE70895899FC001112423
:103B700070E00E94B232F4CF61E070E0D7CF81E014
:103B800008958D3C31F40E944A1D81958093CC03A9
:103B900008958E3C19F40E944A1DF8CF8F3C31F4F1
:103BA0000E944A1D81958093CB030895803D19F4AE
:103BB0000E944A1DF8CF893D29F40E94881D8093F8
:103BC000CD0308958A3D21F40E94881D8195F7CF89
:103BD0008B3D31F40E94881D81958093CE0308951A
:103BE0008C3D19F40E94881DF8CF9FE2980F983001
:103BF00070F4815D990B21E030E001C0220F8A95BD
:103C0000EAF78091CA03822B8093CA0308958D3D01
:103C100031F48091C80381608093C80308958E3D7C
:103C200021F48091C8038260F7CF8F3DB9F780916E
:103C3000C8038460F1CF4091CB038D3C59F480914F
:103C4000CC0387FF0DC01092CC0341110BC0109222
:103C5000C70308C08E3C81F48091CC0318169CF3F6
:103C6000442381F08091CD039091CE03892B09F0FC
:103C70005AC01092C60308958F3C49F447FFF0CF15
:103C80001092CB038091CC038111ECCFE0CF803D2B
:103C900019F41416ACF3E4CF9091CD03893D29F4C7
:103CA0001916F4F61092CD03DBCF8A3D19F497FF75
:103CB000D7CFF8CF9091CE038B3D29F497FFD0CF8B
:103CC0001092CE03CDCF8C3D19F41916CCF3C8CF8A
:103CD0009FE2980F983090F4815D990B21E030E0DD
:103CE000B90102C0660F771F8A95E2F7CB01809574
:103CF0009091CA0389238093CA03B2CF8D3D31F4DA
:103D00008091C8038E7F8093C803AACF8E3D21F493
:103D10008091C8038D7FF7CF8F3D09F0A1CF8091AF
:103D2000C8038B7FF0CF08950E94692B9C0190916E
:103D3000CB038091CC03982B21F03093C5032093C3
:103D4000C4039091CD038091CE03982B21F0309342
:103D5000C3032093C20389EC93E00E949D29089538
:103D600086E0E9ECF3E0DF011D928A95E9F7109215
:103D7000C7031092C6031092C8030895FC01828104
:103D800081110EC0838181110BC08481811108C013
:103D900091E08581811101C090E0892F81700895A3
:103DA00081E0FCCFA6E0B0E0E8EDFEE10C942F331B
:103DB00086E0E9ECF3E0DE01119601900D928A9520
:103DC000E1F71092CB031092CC031092CD03109226
:103DD000CE038B819C81892B89F08091C4039091C3
:103DE000C5030E94812BAC019091C7039923C9F1AF
:103DF00080913C018417150608F440C08D819E8196
:103E0000892B91F08091C2039091C3030E94812B72
:103E1000AC019091C603992309F471C080913801D7
:103E20008417150608F479C0BE016F5F7F4F89ECD7
:103E300093E00E94B72A811105C089EC93E00E94AB
:103E4000BE1E81110E94941E86E0FE013196A9ECEF
:103E5000B3E001900D928A95E1F72696E3E00C9489
:103E60004B3320913D018AE0289F900111242417B3
:103E7000350720F69F5F9093C70302C09F3FD1F79D
:103E80001B81112359F00E944A1D9FEF11160CF45B
:103E900091E0899F802D11248093CB031C811123F5
:103EA00059F00E944A1D9FEF11160CF491E0899F72
:103EB000802D11248093CC033091CB03332309F45C
:103EC0009DCF2091CC03222309F498CF45EB3403F6
:103ED000C0011124992359F09093CB0345EB24039F
:103EE00090011124332339F03093CC0387CF81E044
:103EF0008093CB03F3CF81E08093CC037FCF2091DD
:103F000039018AE0289F900111242417350708F011
:103F10008BCF9F5F9093C60302C09F3FD1F71D8157
:103F2000112359F00E94881D9FEF11160CF491E0A7
:103F3000899F802D11248093CD031E81112359F078
:103F40000E94881D9FEF11160CF491E0899F802D2F
:103F500011248093CE033091CD03332309F464CF31
:103F60002091CE03222309F45FCF45EB3403C00137
:103F70001124992359F09093CD0345EB240390012C
:103F80001124332339F03093CE034ECF81E0809358
:103F9000CD03F3CF81E08093CE0346CF0895FC019B
:103FA000680F791F8FEF91E36E177F0709F408956B
:103FB0002191822728E030E087FF06C0880F8927FB
:103FC00021503109C9F7F0CF880FFACFAB0124E6B1
:103FD00030E0BC0188E70E945A2721E0892B09F0D4
:103FE00020E0822F0895B0E0A0E0E9EFFFE10C941B
:103FF0002A336C017B0164E670E088E70E94C026EA
:104000008C01E601EC0CFD1CCE15DF0561F40E946D
:10401000A22781E00115110509F080E0CDB7DEB7D8
:10402000E8E00C94463317FDF2CFFE01849164E67C
:1040300070E00E942C278C012196E6CF0F931F93EE
:104040009B0104E610E0AC0160E488E70E947B2756
:1040500021E0892B09F020E0822F1F910F91089514
:104060000E94BA2608950895EBEBF4E080E092E018
:10407000DF019C011D9221503040E1F7F093C20610
:10408000E093C1068FEF9FEF9093FD038093FC03B5
:104090000895CF930E9433200E9458098093F8031B
:1040A00080FD11C080E88093F7030E9430206BE010
:1040B00070E089EC9AE00E94F31F811106C0C0E015
:1040C0008C2FCF91089580E2EECF8091F80365E0C8
:1040D00070E081FD35C084EC9AE00E94F31F8823D4
:1040E00071F36DE070E082EB9AE00E94F31FC82F3D
:1040F000882329F30E94752B605A75418F4F9F4F7B
:104100006093BD067093BE068093BF069093C00671
:104110000E94752B605D7A488F4F9F4F6093B70464
:104120007093B8048093B9049093BA040E94342029
:1041300081E08093FB038093FA031092F903C0CFD0
:104140008FEB9AE0CACF2091F70336E0839FC0013E
:104150001124629F800D911D1124811522E0920788
:1041600014F090E080E085549B4F9093C2068093BA
:10417000C10608952091C1063091C206255B3440E6
:104180004091F703642F70E0C9010E949E32481BE2
:10419000463010F4240F311D211582E0380710F04D
:1041A00030E020E025543B4F3093C2062093C106F7
:1041B00008951F93CF93DF93162F8A3039F481E04F
:1041C0000E945221DF91CF911F9108958D3011F4FB
:1041D00080E0F6CFC091C106D091C20696E0FE0104
:1041E000AFECB3E001900D929A95E1F7803EB8F004
:1041F00086E0FE0111928A95E9F711111CC0C09169
:10420000C106D091C20646E050E0BE018FEC93E0BB
:104210000E946F33892BE9F40E94BA20D3CFF6E0D5
:104220008F9FB00111246C52754F46E050E0CE01D3
:104230000E946633E2CFE091C106F091C2069F0171
:104240002A5F3F4F2E173F07D1F2808180958193DF
:10425000F9CFCB5BD440CE0125E0969587952A9582
:10426000E1F721E030E0A90102C0440F551F8A9513
:10427000E2F7CA014091FC035091FD03842B952B7A
:10428000259645E0D695C7954A95E1F702C0220FDD
:10429000331FCA95E2F7822B932B9093FD038093F3
:1042A000FC03BACFCF93382FE091C106F091C2063C
:1042B000EB5BF4402091F703622F70E0CF010E9486
:1042C0009E32281B822F332369F066E00E949232CF
:1042D000C82FC15010F4CF91089560E080E20E9491
:1042E000D920F7CF9F01280F311D2115324018F03A
:1042F00080E0F0E0E0E08E0F9F2F911D85549B4FF2
:104300009093C2068093C106E6CFFF920F931F934E
:10431000CF93DF93EC01F62EFC0101900020E9F72A
:104320008F0101501109C017D10728F0CDB7DEB7B2
:10433000E5E00C9449336F2D89910E94D920F3CF89
:10434000CF93DF932091C1063091C2062B5B34409E
:10435000A901460F571F4130524020F060E072E043
:10436000621B730B4091FC035091FD03FC01C901DA
:10437000620F731FC1E0D0E08617970738F05093A3
:10438000FD034093FC03DF91CF9108952491DC015C
:10439000A554BB4F3C91321781F02C939C01A5E0B2
:1043A00036952795AA95E1F7DE0102C0AA0FBB1F3B
:1043B0002A95E2F79D014A2B532B01963196DCCFCB
:1043C0008091FB03811103C08091FA0308950E943C
:1043D000752B605A75418F4F9F4F6093BD06709348
:1043E000BE068093BF069093C0068091FA038111A8
:1043F000EBCF62E070E080EB9AE00E94F31F88232D
:1044000019F381E08093FA03DFCFB0E0A0E0EBE0A6
:10441000F2E20C9424338091FC039091FD03892BEC
:1044200009F4B6C08091FB03882309F4B1C08091E0
:10443000F9038111ADC00E94E0212091FC0330916D
:10444000FD032115310509F4A3C090E041E050E0DF
:10445000092F10E0EA01092E02C0CC0FDD1F0A94DB
:10446000E2F7BE0162237323672B11F49F5FF0CF45
:104470008091F80380FF91C0990F990F990F909345
:10448000400110924301995F9093410183E0809332
:10449000440167E070E08EE391E00E94E61F88230C
:1044A00009F476C0980145E0220F331F4A95E1F7E1
:1044B0008091F80380FF83C0E5EDF3E080E2DF0147
:1044C0001D928A95E9F70CE612E088E6E82E82E074
:1044D000F82E97E0992E88248394D801ED918D01D0
:1044E000D7016D917D01620F732F711D65547B4F54
:1044F000F0E0EB52FC4F50E040E0792C741AA82C0D
:10450000042E01C0AA0C0A94EAF76B0180E0D601E0
:104510009D916D019A21A72DA81BA770BA2E0A2E76
:10452000000CBB0B692E01C0660CBA94EAF7B62CDE
:10453000B195A195B109A770BB2701C09695AA9521
:10454000EAF7A62DA92B90819A2B90838F5F883054
:10455000F1F64F5F5F4F31964830510571F682E0BA
:104560000037180709F0B9CF60E270E085ED93E0FD
:104570000E941E20882361F0C095D0958091FC0395
:104580009091FD03C823D923D093FD03C093FC036E
:10459000CDB7DEB7EEE00C9440339295990F90764C
:1045A000909340019801369527953695279520934D
:1045B0004301915E90934101209344016ACF60E2F0
:1045C00070E0C90185549B4FD3CF8091FA0390913D
:1045D000FB03911103C091E089270895882369F0B6
:1045E00062E070E08EEA9AE00E94F31F811103C03E
:1045F0008091FA0308951092FA038091FA03EBCFA9
:10460000A9E0B0E0E6E0F3E20C9430338091F903E6
:104610009091FB03992321F12091FC033091FD033C
:10462000232BE1F481111AC0198286E28A831B824E
:104630008091F5038C838091F6038D8380914501F1
:104640008E831F828FEF88878FE2898769E070E011
:10465000CE0101960E94E61F811106C08091F903E8
:104660002996E2E00C944C3381E08093F903F6CF75
:10467000A9E0B0E0EEE3F3E20C9430338091F9036B
:104680009091FB03992321F12091FC033091FD03CC
:10469000232BE1F481111AC0198287E28A831B82DD
:1046A0008091F5038C838091F6038D838091450181
:1046B0008E831F828FEF88878FE2898769E070E0A1
:1046C000CE0101960E94E61F811106C08091F90378
:1046D0002996E2E00C944C3381E08093F903F6CF05
:1046E0008091F9039091FB03911103C091E0892718
:1046F0000895882399F062E070E08CEA9AE00E94C5
:10470000F31F811103C08091F90308951092F903FA
:104710008FEF9FEF9093FD038093FC038091F9034B
:10472000E5CF0E945A0908950F931F938091FB03D0
:10473000882309F462C08091BB069091BC060E9458
:10474000812BC29760F00E94692B9093BC068093E6
:10475000BB0660E080E00E94A3200E94912380912C
:10476000FC039091FD03892BA1F08091F90388232C
:1047700081F00E94752B605D7A488F4F9F4F609348
:10478000B7047093B8048093B9049093BA040E945C
:1047900070230E9405228091FA038823A9F00E94C9
:1047A000752B0091BD061091BE062091BF06309179
:1047B000C006601B710B820B930B6F3F7F4F8F4FB7
:1047C0009F4710F40E94E5228091F903811115C0E2
:1047D0000E94752B0091B7041091B8042091B90480
:1047E0003091BA04601B710B820B930B6F3F7F4FAC
:1047F0008F4F9F4710F40E9438231F910F91089507
:10480000CF93DF93EC01FB018581882309F4D2C0AB
:104810009E0130572332310508F0B2C00E94D514F2
:104820009093740480937304FE01E150F047E232E8
:10483000F10520F4EB51FC4C0C9407338091730488
:1048400081608093730493C0809174048860809326
:1048500074048DC0809173048260F3CF80917304DF
:104860008460EFCF809173048860EBCF80917404F3
:104870008160EDCF809174048260E9CF80917304F0
:104880008061DFCF809173048062DBCF80917304FD
:104890008064D7CF0E942C0F809173048068D1CFA1
:1048A000809173048C60CDCF809174048360CFCFEE
:1048B000809173048E7FC5CF80917404877FC7CFAA
:1048C000809173048D7FBDCF809173048B7FB9CFAE
:1048D00080917304877FB5CF809174048E7FB7CFAA
:1048E000809174048D7FB3CF809173048F7EA9CFA4
:1048F000809173048F7DA5CF809173048F7BA1CFAE
:104900000E942C0F809173048F779BCF809173044A
:10491000837F97CF809174048C7F99CF80917304AB
:1049200082FB992790F921E0922790FB82F990FB76
:1049300083F987CF80917404982F909591708E7F22
:10494000892B90FB81F983CF90917304892F8F7B02
:1049500096FF806476CF0E942C0F90917304892F6C
:1049600097FB87F980586DCF81E00E946115809197
:104970007304909174040E94DA140E942C0F80E05A
:10498000DF91CF91089580E0F0CF90917304892F4B
:104990008F7E94FF806155CF90917304892F8E7F15
:1049A00090FF81604ECF90917404892F877F93FF91
:1049B00088604DCF81E0E4CFCF93DF93EB01863168
:1049C0009C4711F50E94BF139D81992399F08A7A23
:1049D00091E009F490E09093FE03811109C089E20F
:1049E0000E9497130E94181480E0DF91CF910895E0
:1049F00085E3F6CF8091FE03811104C089E20E9415
:104A00009F13F0CF85E3FBCF81E0EFCF0F931F9390
:104A1000CF93DF93C42FD22FFC0185818823C9F067
:104A2000409301040E94692B909300048093FF033C
:104A300080E28C0F883040F4C77081E001C0880F9D
:104A4000CA95EAF70E94D80CDF91CF911F910F9180
:104A5000089510910104141332C08091FF039091C6
:104A600000040E94812B883C910548F5C0E2CD0FDF
:104A70001D17B9F080E2810F883040F4177081E093
:104A800001C0880F1A95EAF70E94DF0CC83048F47D
:104A900081E09D2F977001C0880F9A95EAF70E94D8
:104AA000D80C802F0E94CF0CC83070F6D77081E0F0
:104AB00001C0880FDA95EAF70E94DF0CC5CF80E2CB
:104AC0008C0F883008F6C77081E001C0880FCA9546
:104AD000EAF7F2CF0F93DB0188519C4787309105AD
:104AE000A0F5FC01E95FFB4C0C94073306E221EED4
:104AF00041EE6AE17CE7CD010E94062580E00F913E
:104B0000089507E225EE45EE6BE17CE7F4CF06E27F
:104B100021EE40EE68E17CE7EECF07E225EE44EEC1
:104B200069E17CE7E8CF06E221EE42EE6CE17CE74A
:104B3000E2CF07E225EE46EE6DE17CE7DCCF08E24E
:104B400021E045EE6EE17CE7D6CF15968C91882367
:104B500019F010920104D3CF81E0D1CF80913F04AE
:104B600008959C013A9521153F4478F499279C01BA
:104B7000245031092432310578F02752310981E07F
:104B80002E30310550F080E008958F3F910579F384
:104B900070F390E080E0EBCF81E008950E94B125B2
:104BA00008950E94CE25882381F0E0910804F0E06A
:104BB000EE0FFF1FE75FFB4F808191818F3F2FE753
:104BC000920719F001969183808308958F929F92A6
:104BD000AF92BF92CF92DF92EF92FF92CF93C090AD
:104BE0000904D0900A040D2C000CEE08FF08209157
:104BF000460130E0E9E0F4E081E090E032962817E9
:104C000039070CF0A7C060913B0470913C0480917F
:104C10003D0490913E040E94902B4B015C01C09199
:104C2000460189EC88169104A104B10414F1809125
:104C3000080490E0019669E170E00E94B23280932E
:104C40000804880F991FFC01E75FFB4F1182108257
:104C50008C2FC83108F087E18F5F809346010E9456
:104C6000752B60933B0470933C0480933D049093B8
:104C70003E0482E0C816D104E104F1040CF476C0CD
:104C8000A0E6BAEEA70196010E940D336B017C01EC
:104C900088ECC89F90011124032E000C440B550B87
:104CA000280D391D4A1D5B1DA5E0B0E00E940D33A3
:104CB0009B01AC01C701B6010E94C63269017A01AD
:104CC00081EFC816D104E104F1042CF080EFC82E66
:104CD000D12CE12CF12C6091040470910504809199
:104CE0000604909107040E94902B4B015C0185E61D
:104CF00088169104A104B10484F00E94752B60937E
:104D00000404709305048093060490930704809133
:104D10003F0480930304C0920204C0910304A09155
:104D20000204AC1BBB0BA50194010E94183324E6BE
:104D300030E040E050E00E94E832C20FC0933F04F0
:104D4000CF91FF90EF90DF90CF90BF90AF909F906A
:104D50008F90089540815181052E000C660B770BD2
:104D6000C40ED51EE61EF71E019648CFC12CD12CCD
:104D70007601B1CF1092B9008CE08093B80008950D
:104D8000B0E0A0E0E6ECF6E20C942733B82EEB019D
:104D90000E94692B6C01EE24E394F12CC431D105FF
:104DA00060F025E0E22EF12CCF3FDC0731F0CE01A0
:104DB00064E170E00E949E327B0184EAA82E94E8B0
:104DC000992E1092BC00A092BC000E94692B8C010D
:104DD0008091BC0087FF0DC08091B900887F88302A
:104DE000F9F08091B900887F8031D1F00FEF1FEF8B
:104DF00008C0C8010E94812BE816F90648F70EEF9B
:104E00001FEFCF3FDC07E9F2C6010E94812BC817D4
:104E1000D907B8F6C801CDB7DEB7EBE00C94433341
:104E2000B092BB009092BC000E94692B8C018091D3
:104E3000BC0087FF0AC08091B900887F883111F0DB
:104E40008034A1F610E000E0E5CFC8010E94812B7C
:104E5000E816F90660F7D3CF0F931F93CF93DF9334
:104E6000EB018093BB0084E88093BC000E94692B17
:104E70008C018091BC0087FF11C02091B900287F70
:104E800081E090E0283211F490E080E091958195E6
:104E90009109DF91CF911F910F910895CF3FDC07CA
:104EA00041F3C8010E94812BC817D90710F78EEF74
:104EB0009FEFEFCFB0E0A0E0E0E6F7E20C942A33FA
:104EC0006B018A017901B9010E94C026E6010C0D2F
:104ED0001D1DC017D10711F097FF08C024E92093CA
:104EE000BC00CDB7DEB7E8E00C944633B70189913A
:104EF0000E942C27EECFB0E0A0E0E1E8F7E20C94AE
:104F00002A33C62F6A017901B8010E94C02697FD95
:104F10000CC0B8018C2F0E942C27E601EC0CFD1C64
:104F2000CE15DF0511F097FF08C024E92093BC00DF
:104F3000CDB7DEB7E8E00C944633B80189910E9402
:104F40002C27EECF84E98093BC0008958EE14B9B23
:104F500002C08150E1F74B9BFECF08955B9880E241
:104F60008A95F1F75B9A0895FC013BE03A95F1F7D9
:104F700098E020E080E031E040E14A95F1F7880FC9
:104F80004B9B02C08160232742E04A95F1F7000065
:104F900040E14A95F1F7915079F790E19A95F1F750
:104FA00099B132E03A95F1F7000040E14A95F1F706
:104FB00093FB992790F992272081920F908308956F
:104FC000A1E0B0E0E6EEF7E20C942C3319828C01FC
:104FD0007C01E60EF11C0E151F0541F481E099815C
:104FE000911180E02196E6E00C9448330E94A627B8
:104FF000CE0101960E94B427F80181938F01EBCF77
:10500000539A5B9A089553985B9AEB9AE9E6F0E01D
:1050100080818F73808308956150770B91E001C088
:10502000990F6A95EAF720E031E0911108C0222338
:1050300091F05B9A80E28A95F1F75B980895492F89
:10504000482339F05B9A232740E24A95F1F7969579
:10505000ECCF5B98F9CF5B98EDCFFF920F931F9346
:10506000CF93DF93EC018C01060F111DC017D10700
:1050700029F4CDB7DEB7E5E00C944933F9900E94EE
:10508000AE2768E08F2D0E940C28F0CF1F920F9260
:105090000FB60F9211240F931F932F933F934F93AB
:1050A0005F936F937F938F939F93AF93BF93EF9390
:1050B000FF93CF93DF930F92CDB7DEB719820E9493
:1050C000A627CE0101960E94B427082F06950695C3
:1050D0000695282F22952570902F9570290F922FD5
:1050E000937026952695920F982797708981982B13
:1050F00009F05CC0043008F059C080E18A95F1F7EE
:105100005B9A539A82E08A95F1F700C05B9888E039
:10511000089F80011124D801A25EBE4F1696ED9122
:10512000FC9117973097A9F0609166027091670221
:1051300014962D913C911597260F371F11968D913E
:105140009C911297680F791F13964C9113978C912D
:105150000995F801E25EFE4F6381662351F02091CC
:1051600066023091670284819581820F931F0E94AD
:105170002D280E94AE2780E18A95F1F75B9853981D
:105180005B9A80E18A95F1F7F801E25EFE4F60815B
:10519000662351F0209166023091670281819281ED
:1051A000820F931F0E94E0270E94A6270F90DF9195
:1051B000CF91FF91EF91BF91AF919F918F917F918F
:1051C0006F915F914F913F912F911F910F910F9090
:1051D0000FBE0F901F9018950F931F93CF93DF93DF
:1051E000EC0104970CF04CC0F894539A5B9885E05E
:1051F0008A95F1F700009C2F969595708C2F8570FD
:10520000980F892F83709695969523E0CC0FDD1F1C
:105210002A95E1F7980F8E01092B0E94AE2700C056
:1052200068E0802F0E940C2880E18A95F1F753985E
:105230005B9A4B9B1EC087E090E04B991CC0FE011F
:10524000E25EFE4F63816623F9F0209166023091A1
:10525000670284819581820F931F0E94E02781114C
:1052600013C0539A5B9A7894DF91CF911F910F915D
:10527000089500C0DECF019729F4539A5B9A789481
:1052800080E0F2CF00C0D9CF0E94A62780E28A95A5
:10529000F1F75B98539A80E18A95F1F7C25EDE4F91
:1052A0006881662351F020916602309167028981FE
:1052B0009A81820F931F0E942D280E94AE27789416
:1052C00081E0D2CF90937102809370020895909301
:1052D00046048093450408950E94391B811103C040
:1052E000809140040895E0914504F0914604309780
:1052F00029F00190F081E02D0995089580E008954E
:105300000E946C290895E0914504F091460430977D
:1053100099F020914F01222359F02091730427FF27
:1053200007C0DC012C9111962C93119726E02C9349
:105330000280F381E02D09950895E0914504F091F4
:105340004604309739F022E0DC012C930480F5818B
:10535000E02D09950895A3E0B0E0E1EBF9E20C94AB
:105360003033209143043091440428173907A1F0C9
:105370009093440480934304E0914504F0914604E3
:10538000309751F023E029839B838A830680F7813D
:10539000E02DCE01019609952396E2E00C944C3362
:1053A000A3E0B0E0E6EDF9E20C9430332091410443
:1053B0003091420428173907A1F09093420480935A
:1053C0004104E0914504F0914604309751F024E007
:1053D00029839B838A830680F781E02DCE01019685
:1053E00009952396E2E00C944C33FC0132968091AF
:1053F0004F01882321F0809173049EE187FF96E09E
:1054000080E0915008F4089521912223D1F38F5F19
:10541000F8CF662301F120914F012223F1F0209172
:10542000730427FF1AC0462F4695469546954E3180
:1054300090F4677021E030E002C0220F331F6A95BC
:10544000E2F7840F911DFC01828190E0282339232B
:1054500081E0232B69F480E00895FC0132960896E0
:105460002191261721F0E817F907D1F7F4CF81E051
:1054700008959C01FC0132969FEF80E04191461710
:1054800051F09F3F19F4411101C0982F8F5F863072
:10549000A9F79F3F09F40895290F311D97FD3A950B
:1054A000F90162830895FC01329608962191261332
:1054B00003C0DF0111971C92E817F907B9F70895A7
:1054C000E62FE695E695E695EE3168F4E80FF92FBC
:1054D000F11D677021E030E001C0220F6A95EAF704
:1054E0008281822B82830895E62FE695E695E695E4
:1054F000EE3170F4E80FF92FF11D677021E030E014
:1055000001C0220F6A95EAF7209582812823228321
:10551000089520914F01222339F02091730427FF31
:1055200003C00E94602A08950E94392A089520919C
:105530004F01222339F02091730427FF03C00E94FA
:10554000742A08950E94532A0895FC01329680918E
:105550004F01882351F08091730487FF06C08EE1CC
:10556000DF011D928A95E9F7089586E0F9CF46E0BC
:1055700050E00E946F3321E0892B09F420E0822F54
:10558000089508950E94C12A0895811106C081E0FE
:10559000809347040E94C22A089582E0F9CF83E0F5
:1055A000809347040E94C22A08950E94C52A089544
:1055B00081E0809347040E94C22A08950E94D82A5D
:1055C0000895089508950E94E22A0895089508957F
:1055D0000E94E12A0895CF930E94E62A0E94B71AFA
:1055E0000E94E72AC0E08C2F0E941A19672B682BB3
:1055F000692B31F4CF5FC830B1F780E0CF910895C7
:1056000081E0FCCF85B7806885BF85B7806885BF9E
:1056100008951F921FB61F9211248F939F93AF93EB
:10562000BF9380914804811113C08091C30690916B
:10563000C406A091C506B091C6064196A11DB11D34
:105640008093C3069093C406A093C506B093C60684
:10565000BF91AF919F918F911F901FBE1F90189582
:105660008091CB06843031F10E94850B1092480462
:1056700088E190E020E40FB6F894A895809360004C
:105680000FBE2093600083B7817F846083BF83B7A0
:10569000816083BF7894889583B78E7F83BF0FB670
:1056A000F894A895809160008861809360001092C2
:1056B00060000FBE08950E942C0F0E948C0B08956D
:1056C00082E084BD93E095BD9AEF97BD80936E0014
:1056D00008952FB7F8948091C3069091C406A091C5
:1056E000C506B091C6062FBF08952FB7F8946091F4
:1056F000C3067091C4068091C5069091C6062FBF5F
:1057000008959C014FB7F8948091C3069091C40608
:10571000A091C506B091C6064FBF821B930B08959A
:10572000CF92DF92EF92FF922FB7F894C090C3060A
:10573000D090C406E090C506F090C6062FBFA70122
:105740009601261B370B480B590BCA01B901FF9074
:10575000EF90DF90CF90089578941F921FB61F921C
:1057600011248F939F93AF93BF938091C306909121
:10577000C406A091C506B091C6060196A11DB11D33
:105780008093C3069093C406A093C506B093C60643
:10579000BF91AF919F918F911F901FBE1F90189541
:1057A00087E797E7909301088093000888E19AE0E3
:1057B0000FB6F894A895809360000FBE9093600098
:1057C000FFCF88E19AE00FB6F894A8958093600027
:1057D0000FBE90936000FFCF8091690408959B01F4
:1057E000BA019091CB069430E9F48F708093E90070
:1057F0009FEF8091E800915085FD06C085ED8A9568
:10580000F1F700009111F5CF8091E80085FF0AC003
:1058100050E040E0C9010E94F92D8091E8008E77A8
:105820008093E800089543E050E0BC0182E00E94CC
:10583000EF2B089546E050E0BC0182E00E94EF2B80
:105840000895CF93DF93EC0180914F01811111C036
:1058500048E050E0BE0181E00E94EF2B80E2FE01B3
:10586000A9E4B4E001900D928A95E1F7DF91CF9120
:1058700008958091730487FF05C040E282E050E004
:10588000BE01EACF48E081E0FACF8091CA068111DB
:1058900009C00E94892F0E94E62F8091E200846057
:1058A0008093E20008951092CA0608950E94D82AB3
:1058B00008956091C70681E0611101C080E00E94F7
:1058C000CF2A08959091CB0681E0943009F080E0D2
:1058D0006091C7060E94D52A089542E061EC81E0FC
:1058E0000E94052F42E261EC82E00E94052F909118
:1058F000CB0681E0943009F080E06091C7060E94F9
:10590000C52A08958091CD06833009F461C030F432
:105910008130D1F1823009F49EC008958A3009F4B3
:105920008AC08B3009F46FC0893009F050C0809173
:10593000CC06813209F04BC08091D0069091D106FF
:10594000029708F044C08091E800877F8093E800C8
:105950008091E80082FF37C09091F3008091F200BF
:10596000029731F48091F100813011F0863021F4FA
:105970008091F100809369048091E8008B77809397
:10598000E8000E94392F23C08091CC06813AF9F4B7
:105990008091E800877F8093E8008091D006909105
:1059A000D106892B61F460E289E494E070E00E9402
:1059B000482E8091E8008B778093E800089560E09E
:1059C00090E080E0F3CF8091CB068111C1CF0895A4
:1059D0008091CC06813AD9F78091D0069091D1067A
:1059E000892BA9F78091E800877F8093E800809158
:1059F000E80080FFFCCF80914F018093F1008091FF
:105A0000E8008E77BCCF8091CC06813201F780917F
:105A1000D0069091D106892BD1F68091E800877F3E
:105A20008093E8000E94392F8091CE0680934F0129
:105A30000E942C0F08958091CC06813241F680910E
:105A4000E800877F8093E8000E94392F8091CF067D
:105A500080936A0408958091CC06813A09F0B7CF0B
:105A60008091E800877F8093E8008091E80080FFC4
:105A7000FCCF80916A04C1CF84B7877F84BF0FB603
:105A8000F894A895809160008861809360001092DE
:105A900060000FBE80E890E00FB6F894809361003C
:105AA000909361000FBE0E94DE2A08950E94892F04
:105AB0000E94E62FE2EEF0E080818460808378949B
:105AC0000E946532089587E491E00E946729089555
:105AD0008091CB06853031F48091CB06853019F06A
